:100000000C942A000C943F000C943F000C943F0089
:100010000C943F000C943F000C943F000C943F0064
:100020000C943F000C943F000C943F000C943F0054
:100030000C943F000C943F000C943F000C943F0044
:100040000C943F000C943F000C943F000C943F0034
:100050000C943F0011241FBECFE5D4E0DEBFCDBF1E
:1000600010E0A0E6B0E0E6E0F6E202C005900D92F6
:10007000AE39B107D9F70E94AA110C9401130C9460
:100080000000EF92FF920F931F937B018C0120E001
:1000900030E040E05FE40E94ED0388238CF0C8016B
:1000A000B70120E030E040E05FE40E94B9010E9427
:1000B0004D049B01AC01205030404040504806C0E8
:1000C000C801B7010E944D049B01AC01B901CA01EE
:1000D0001F910F91FF90EF900895A0E0B0E0E3E74B
:1000E000F0E00C94CA12DC012B01FA019C919230D1
:1000F00008F439C1EB018881823008F433C19430AF
:1001000069F4843009F02FC111969C91119789816F
:10011000981709F428C1A8E8B0E025C1843009F493
:1001200021C18230A9F4923009F01DC19A01AD01BC
:1001300088E0EA010990AE01E90109929E0181502F
:10014000C1F7E201898111969C918923818308C1BD
:10015000923009F407C112962D903C901397EB0151
:100160008A819B811496AD90BD90CD90DC901797BD
:10017000EC80FD800E811F819101281B390BB90194
:1001800037FF04C066277727621B730B6032710547
:100190000CF061C0121613066CF537014801062EEB
:1001A00004C096948794779467940A94D2F721E0D8
:1001B00030E040E050E004C0220F331F441F551FC1
:1001C0006A95D2F721503040404050402E213F21C7
:1001D00040235123211531054105510521F021E02E
:1001E00030E040E050E079018A01E628F72808294C
:1001F00019293CC0232BD1F1260E371E35014601AB
:10020000062E04C096948794779467940A94D2F744
:1002100021E030E040E050E004C0220F331F441FD3
:10022000551F6A95D2F721503040404050402A2156
:100230003B214C215D21211531054105510521F05E
:1002400021E030E040E050E059016A01A628B728DB
:10025000C828D9280BC0821593052CF01C01AA24AC
:10026000BB24650103C0EE24FF24870111969C91F5
:10027000D20111968C91981709F445C0992339F051
:10028000A80197012A193B094C095D0906C0A6017E
:1002900095012E193F09400B510B57FD08C01182E3
:1002A0003382228224833583468357831DC081E0B5
:1002B00081833382228288279927DC01821B930B5A
:1002C000A40BB50B84839583A683B7830DC0220F3F
:1002D000331F441F551F24833583468357838281F0
:1002E000938101979383828324813581468157814D
:1002F000DA01C9010197A109B1098F5F9F4FAF4F83
:10030000BF4328F30BC0918333822282EA0CFB1C8B
:100310000C1D1D1DE482F5820683178383E0808314
:10032000248135814681578157FF1AC0C901AA2708
:1003300097FDA095BA2F81709070A070B0705695FF
:10034000479537952795822B932BA42BB52B848328
:100350009583A683B7838281938101969383828359
:10036000DF0101C0D201CD01CDB7DEB7E2E10C94CF
:10037000E612A0E2B0E0EFEBF1E00C94D612698354
:100380007A838B839C832D833E834F835887E9E058
:10039000EE2EF12CEC0EFD1ECE010196B7010E944F
:1003A00076058E010F5E1F4FCE010596B8010E94A3
:1003B00076058A8991E089278A8BC701B801AE0149
:1003C000475E5F4F0E946D000E94A104A096E6E088
:1003D0000C94F212A0E2B0E0E0EFF1E00C94D6123F
:1003E00069837A838B839C832D833E834F835887D5
:1003F000F9E0EF2EF12CEC0EFD1ECE010196B701B7
:100400000E9476058E010F5E1F4FCE010596B80142
:100410000E947605C701B801AE01475E5F4F0E949A
:100420006D000E94A104A096E6E00C94F212A0E2F6
:10043000B0E0EDE1F2E00C94CA1269837A838B8319
:100440009C832D833E834F835887CE010196BE0146
:10045000675F7F4F0E947605CE010596BE016F5EF5
:100460007F4F0E9476059985923088F08989823085
:10047000C8F0943019F4823051F404C0843029F467
:10048000923081F488E890E0C6C0923049F420E0D0
:100490009A858A89981321E02A87CE010996BBC0E4
:1004A000823049F420E09A858A89981321E02A8BCA
:1004B000CE014196B0C02D843E844F8458886D880B
:1004C0007E888F88988CEE24FF248701AA24BB2481
:1004D000650140E050E060E070E0E0E0F0E0C10184
:1004E00081709070892BE9F0E60CF71C081D191D2E
:1004F0009A01AB012A0D3B1D4C1D5D1D80E090E073
:10050000A0E0B0E0E614F7040805190520F481E046
:1005100090E0A0E0B0E0BA01A901480F591F6A1F9E
:100520007B1FAA0CBB1CCC1CDD1C97FE08C081E005
:1005300090E0A0E0B0E0A82AB92ACA2ADB2A3196C6
:10054000E032F10549F0660C771C881C991C569422
:10055000479437942794C3CFFA85EA892B893C893D
:100560008B859C85280F391F2E5F3F4F17C0CA010E
:1005700081709070892B61F016950795F794E79438
:1005800080E090E0A0E0B0E8E82AF92A0A2B1B2BD3
:1005900076956795579547952F5F3F4F77FDE7CF46
:1005A0000CC0440F551F661F771F17FD4160EE0CEE
:1005B000FF1C001F111F21503040403090E05907B0
:1005C00090E0690790E4790760F32B8F3C8FDB01A3
:1005D000CA018F779070A070B07080349105A1052A
:1005E000B10561F447FD0AC0E114F10401051105EC
:1005F00029F0405C5F4F6F4F7F4F40781A8EFE1797
:1006000011F081E08A8F4D8F5E8F6F8F78A383E02A
:10061000898FCE0149960E94A104A096E2E10C9434
:10062000E612A8E1B0E0E7E1F3E00C94D2126983AE
:100630007A838B839C832D833E834F835887B9E0D5
:10064000EB2EF12CEC0EFD1ECE010196B7010E949F
:1006500076058E010F5E1F4FCE010596B8010E94F0
:1006600076052985223008F47EC03989323010F4AD
:10067000B8017CC08A859A8989278A87243011F03D
:10068000223031F4231709F06EC068E870E06EC0C4
:10069000343039F41D861E861F86188A1C861B86F8
:1006A00004C0323021F484E08987B7015FC02B8514
:1006B0003C858B899C89281B390B3C872B87ED84D3
:1006C000FE840F851889AD88BE88CF88D88CEA143F
:1006D000FB040C051D0540F4EE0CFF1C001F111F50
:1006E000215030403C872B8720E030E040E050E054
:1006F00080E090E0A0E0B0E460E070E0EA14FB0489
:100700000C051D0540F0282B392B4A2B5B2BEA18D2
:10071000FB080C091D09B695A79597958795EE0CD2
:10072000FF1C001F111F6F5F7F4F6F31710531F785
:10073000DA01C9018F779070A070B0708034910594
:10074000A105B10561F427FD0AC0E114F10401051A
:10075000110529F0205C3F4F4F4F5F4F20782D87C8
:100760003E874F87588BBE01675F7F4FCB010E944A
:10077000A1046896EAE00C94EE12A8E1B0E0E3EC84
:10078000F3E00C94D61269837A838B839C832D8348
:100790003E834F83588789E0E82EF12CEC0EFD1E36
:1007A000CE010196B7010E9476058E010F5E1F4FA4
:1007B000CE010596B8010E9476058985823040F009
:1007C0008989823028F0C701B8010E94EE0501C076
:1007D0008FEF6896E6E00C94F212A8E1B0E0E3EF48
:1007E000F3E00C94D61269837A838B839C832D83E8
:1007F0003E834F83588789E0E82EF12CEC0EFD1ED6
:10080000CE010196B7010E9476058E010F5E1F4F43
:10081000CE010596B8010E9476058985823040F0A8
:100820008989823028F0C701B8010E94EE0501C015
:100830008FEF6896E6E00C94F212A8E1B0E0E3E2F4
:10084000F4E00C94D61269837A838B839C832D8386
:100850003E834F83588789E0E82EF12CEC0EFD1E75
:10086000CE010196B7010E9476058E010F5E1F4FE3
:10087000CE010596B8010E9476058985823040F048
:100880008989823028F0C701B8010E94EE0501C0B5
:1008900081E06896E6E00C94F212ACE0B0E0E3E5AB
:1008A000F4E00C94DA1269837A838B839C83CE0103
:1008B0000196BE016B5F7F4F0E9476058D8182306D
:1008C00061F1823050F1843021F48E81882351F11E
:1008D0002EC02F81388537FD20C06E812F31310524
:1008E0001CF06623F9F023C08EE190E0821B930B8D
:1008F00029853A854B855C8504C056954795379583
:1009000027958A95D2F76623B1F05095409530959A
:1009100021953F4F4F4F5F4F0EC020E030E040E049
:1009200050E009C02FEF3FEF4FEF5FE704C020E03A
:1009300030E040E050E8B901CA012C96E2E00C94A6
:10094000F612DF92EF92FF920F931F93FC01E48067
:10095000F58006811781D1808081823048F480E063
:1009600090E0A0E1B0E0E82AF92A0A2B1B2BA5C0F1
:10097000843009F49FC0823021F4EE24FF248701E3
:1009800005C0E114F1040105110519F4E0E0F0E0FF
:1009900096C0628173819FEF623879070CF05BC06B
:1009A00022E83FEF261B370B2A3131052CF020E0DF
:1009B00030E040E050E02AC0B801A701022E04C098
:1009C00076956795579547950A94D2F781E090E020
:1009D000A0E0B0E004C0880F991FAA1FBB1F2A9592
:1009E000D2F70197A109B1098E219F21A023B1233C
:1009F0000097A105B10521F081E090E0A0E0B0E012
:100A00009A01AB01282B392B4A2B5B2BDA01C90148
:100A10008F779070A070B07080349105A105B105FA
:100A200039F427FF09C0205C3F4F4F4F5F4F04C090
:100A3000215C3F4F4F4F5F4FE0E0F0E02030A0E0FF
:100A40003A07A0E04A07A0E45A0710F0E1E0F0E01E
:100A500079018A0127C06038710564F5FB01E1580E
:100A6000FF4FD801C7018F779070A070B0708034AD
:100A70009105A105B10539F4E7FE0DC080E490E0D1
:100A8000A0E0B0E004C08FE390E0A0E0B0E0E80EAA
:100A9000F91E0A1F1B1F17FF05C016950795F7942F
:100AA000E794319687E016950795F794E7948A9531
:100AB000D1F705C0EE24FF248701EFEFF0E06E2FA1
:100AC000679566276795902F9F77D794DD24D794F5
:100AD0008E2F8695492F462B582F5D29B701CA01C5
:100AE0001F910F91FF90EF90DF900895FC01DB01C3
:100AF000408151812281622F6F7770E0221F22276F
:100B0000221F9381892F880F822B282F30E0991F75
:100B10009927991F11969C93119721153105A9F5D5
:100B2000411551056105710511F482E037C082E875
:100B30009FEF13969C938E9312979A01AB0167E0F7
:100B4000220F331F441F551F6A95D1F783E08C9302
:100B50000DC0220F331F441F551F12968D919C917B
:100B60001397019713969C938E931297203080E0F1
:100B7000380780E0480780E4580758F314962D930F
:100B80003D934D935C93179708952F3F310579F46A
:100B9000411551056105710519F484E08C930895A0
:100BA00064FF03C081E08C9312C01C9210C02F57C9
:100BB000304013963C932E93129783E08C9387E0FA
:100BC000440F551F661F771F8A95D1F770641496DE
:100BD0004D935D936D937C93179708951F93DC015C
:100BE000FB019C91923008F447C08081823008F468
:100BF00043C0943051F411961C91843099F5818151
:100C0000682F70E0611B71093FC0843021F0923081
:100C100031F48230B9F18181882389F12DC0119698
:100C20001C9111978230F1F081811817D9F4129636
:100C30002D913C911397828193818217930794F0B1
:100C400028173907BCF014968D919D910D90BC9199
:100C5000A02D2481358146815781281739074A07FD
:100C60005B0718F4112341F00AC082179307A40709
:100C7000B50740F4112319F061E070E005C06FEF93
:100C80007FEF02C060E070E0CB011F910895DF9319
:100C9000CF93CDB7DEB7E9970FB6F894DEBF0FBE9E
:100CA000CDBF89AF80E060E040E00E94290D80E088
:100CB00061E040E00E94290D89AD82958F70982FE8
:100CC000917080E064E0492F0E94290D89AD8295E2
:100CD00086958770982F917080E065E0492F0E947B
:100CE000290D89AD8295869586958370982F917090
:100CF00080E066E0492F0E94290D89AD982F991F49
:100D00009927991F80E067E0492F0E94290D80E014
:100D100062E041E00E94290D80E090E0A0E8BFE39E
:100D20008DAB9EABAFABB8AF6DA97EA98FA998ADC7
:100D300020E030E04AE753E40E941702DC01CB01D7
:100D400089AB9AABABABBCAB69A97AA98BA99CA9BF
:100D500020E030E040E85FE30E941D0488232CF48B
:100D600081E090E098AB8FA73FC069A97AA98BA9D1
:100D70009CA920E03FEF4FE757E40E94BD031816FF
:100D80004CF56DA97EA98FA998AD20E030E040E236
:100D900051E40E941702DC01CB01BC01CD010E948D
:100DA0004100DC01CB0198AB8FA70FC089E190E037
:100DB0009EA78DA78DA59EA50197F1F79EA78DA74C
:100DC0008FA598A9019798AB8FA78FA598A9009791
:100DD00069F714C069A97AA98BA99CA90E9441004E
:100DE000DC01CB0198AB8FA78FA598A99CA78BA7F7
:100DF0008BA59CA50197F1F79CA78BA780E062E0EB
:100E000040E00E94290D80E090E0A0E8BFE38FA3BE
:100E100098A7A9A7BAA76FA178A589A59AA520E048
:100E200030E04AE753E40E941702DC01CB018BA3B8
:100E30009CA3ADA3BEA36BA17CA18DA19EA120E02C
:100E400030E040E85FE30E941D0488232CF481E039
:100E500090E09AA389A33FC06BA17CA18DA19EA124
:100E600020E03FEF4FE757E40E94BD0318164CF512
:100E70006FA178A589A59AA520E030E040E251E471
:100E80000E941702DC01CB01BC01CD010E94410090
:100E9000DC01CB019AA389A30FC089E190E098A35C
:100EA0008F8F8F8D98A10197F1F798A38F8F89A1CC
:100EB0009AA101979AA389A389A19AA1009769F79A
:100EC00014C06BA17CA18DA19EA10E944100DC01F8
:100ED000CB019AA389A389A19AA19E8F8D8F8D8D15
:100EE0009E8D0197F1F79E8F8D8F89AD982F917010
:100EF00080E064E0492F0E94290D89AD8695982FE6
:100F0000917080E065E0492F0E94290D89AD86959A
:100F10008695982F917080E066E0492F0E94290DF8
:100F200089AD869586958695982F917080E067E0CB
:100F3000492F0E94290D80E062E041E00E94290DC6
:100F400080E090E0A0E8BFE3898F9A8FAB8FBC8FE1
:100F5000698D7A8D8B8D9C8D20E030E04AE753E4DB
:100F60000E941702DC01CB018D8B9E8BAF8BB88F5B
:100F70006D897E898F89988D20E030E040E85FE3BD
:100F80000E941D0488232CF481E090E09C8B8B8BC5
:100F90003FC06D897E898F89988D20E03FEF4FE7B4
:100FA00057E40E94BD0318164CF5698D7A8D8B8D20
:100FB0009C8D20E030E040E251E40E941702DC0109
:100FC000CB01BC01CD010E944100DC01CB019C8B17
:100FD0008B8B0FC089E190E09A8B898B89899A89E4
:100FE0000197F1F79A8B898B8B899C8901979C8B50
:100FF0008B8B8B899C89009769F714C06D897E89DA
:101000008F89988D0E944100DC01CB019C8B8B8BDA
:101010008B899C89988B8F878F8598890197F1F7A9
:10102000988B8F8780E062E040E00E94290D80E08D
:1010300090E0A0E8BFE38B879C87AD87BE876B8578
:101040007C858D859E8520E030E04AE753E40E9450
:101050001702DC01CB018F839887A987BA876F813C
:10106000788589859A8520E030E040E85FE30E943A
:101070001D0488232CF481E090E09E838D833FC083
:101080006F81788589859A8520E03FEF4FE757E4A7
:101090000E94BD0318164CF56B857C858D859E8559
:1010A00020E030E040E251E40E941702DC01CB0175
:1010B000BC01CD010E944100DC01CB019E838D83E8
:1010C0000FC089E190E09C838B838B819C81019789
:1010D000F1F79C838B838D819E8101979E838D8305
:1010E0008D819E81009769F714C06F81788589850D
:1010F0009A850E944100DC01CB019E838D838D8106
:101100009E819A83898389819A810197F1F79A83D5
:101110008983E9960FB6F894DEBF0FBECDBFCF919D
:10112000DF910895DF93CF93CDB7DEB7C354D0409E
:101130000FB6F894DEBF0FBECDBFFE01ED5BFF4FD3
:10114000808380E060E041E00E94290D80E061E062
:1011500040E00E94290DFE01ED5BFF4F80818295EA
:101160008F70982F917080E064E0492F0E94290DC4
:10117000FE01ED5BFF4F8081829586958770982FE9
:10118000917080E065E0492F0E94290DFE01ED5B22
:10119000FF4F80818295869586958370982F9170F8
:1011A00080E066E0492F0E94290DFE01ED5BFF4FB4
:1011B0008081982F991F9927991F80E067E0492F18
:1011C0000E94290D80E062E041E00E94290DFE01AD
:1011D000FF9680E090E0A0E8BFE380839183A28344
:1011E000B383FE01FF96608171818281938120E04B
:1011F00030E04AE753E40E941702DC01CB018BAFD9
:101200009CAFADAFBEAF6BAD7CAD8DAD9EAD20E004
:1012100030E040E85FE30E941D0488232CF481E065
:1012200090E09AAF89AF41C06BAD7CAD8DAD9EAD06
:1012300020E03FEF4FE757E40E94BD0318165CF52E
:10124000FE01FF96608171818281938120E030E010
:1012500040E251E40E941702DC01CB01BC01CD0148
:101260000E944100DC01CB019AAF89AF0FC089E138
:1012700090E098AF8FAB8FA998AD0197F1F798AF39
:101280008FAB89AD9AAD01979AAF89AF89AD9AAD11
:10129000009769F714C06BAD7CAD8DAD9EAD0E941B
:1012A0004100DC01CB019AAF89AF89AD9AAD9EAB0D
:1012B0008DAB8DA99EA90197F1F79EAB8DAB80E018
:1012C00062E040E00E94290D80E090E0A8ECB2E4EA
:1012D00089AB9AABABABBCAB69A97AA98BA99CA92A
:1012E0002BEA3AEA4AEA5EE30E941702DC01CB01EC
:1012F0008DA79EA7AFA7B8AB6DA57EA58FA598A912
:1013000020E030E040E85FE30E941D0488231CF4E5
:1013100081E08CA791C06DA57EA58FA598A920E03E
:1013200030E04FE753E40E94BD0318160CF07BC079
:1013300069A97AA98BA99CA920E030E04AE754E486
:101340000E941103DC01CB0188A799A7AAA7BBA71C
:1013500068A579A58AA59BA520E030E04AE753E47B
:101360000E941702DC01CB018CA39DA3AEA3BFA3F7
:101370006CA17DA18EA19FA120E030E040E85FE359
:101380000E941D0488232CF481E090E09BA38AA393
:101390003FC06CA17DA18EA19FA120E03FEF4FE750
:1013A00057E40E94BD0318164CF568A579A58AA5D7
:1013B0009BA520E030E040E251E40E941702DC01EE
:1013C000CB01BC01CD010E944100DC01CB019BA3FC
:1013D0008AA30FC089E190E099A388A388A199A16D
:1013E0000197F1F799A388A38AA19BA101979BA3D9
:1013F0008AA38AA19BA1009769F724C06CA17DA153
:101400008EA19FA10E944100DC01CB019BA38AA376
:101410008AA19BA19F8F8E8F8E8D9F8D0197F1F753
:101420009F8F8E8F0FC06DA57EA58FA598A90E9456
:101430004100DC01CB018CA78CA58D8F8D8D8A9509
:10144000F1F78D8FFE01ED5BFF4F8081982F91703A
:1014500080E064E0492F0E94290DFE01ED5BFF4F03
:1014600080818695982F917080E065E0492F0E94D9
:10147000290DFE01ED5BFF4F808186958695982FA3
:10148000917080E066E0492F0E94290DFE01ED5B1E
:10149000FF4F8081869586958695982F917080E084
:1014A00067E0492F0E94290D80E062E041E00E9440
:1014B000290D80E090E0A0E8BFE3898F9A8FAB8F81
:1014C000BC8F698D7A8D8B8D9C8D20E030E04AE752
:1014D00053E40E941702DC01CB018D8B9E8BAF8BF6
:1014E000B88F6D897E898F89988D20E030E040E843
:1014F0005FE30E941D0488232CF481E090E09C8B24
:101500008B8B3FC06D897E898F89988D20E03FEF5E
:101510004FE757E40E94BD0318164CF5698D7A8D8C
:101520008B8D9C8D20E030E040E251E40E94170258
:10153000DC01CB01BC01CD010E944100DC01CB01EB
:101540009C8B8B8B0FC089E190E09A8B898B89896A
:101550009A890197F1F79A8B898B8B899C890197DE
:101560009C8B8B8B8B899C89009769F714C06D8944
:101570007E898F89988D0E944100DC01CB019C8B74
:101580008B8B8B899C89988B8F878F859889019706
:10159000F1F7988B8F8780E062E040E00E94290D90
:1015A00080E090E0A0E8BFE38B879C87AD87BE8793
:1015B0006B857C858D859E8520E030E04AE753E48D
:1015C0000E941702DC01CB018F839887A987BA8715
:1015D0006F81788589859A8520E030E040E85FE377
:1015E0000E941D0488232CF481E090E09E838D836B
:1015F0003FC06F81788589859A8520E03FEF4FE76E
:1016000057E40E94BD0318164CF56B857C858D85CB
:101610009E8520E030E040E251E40E941702DC01A8
:10162000CB01BC01CD010E944100DC01CB019E83B6
:101630008D830FC089E190E09C838B838B819C819B
:101640000197F1F79C838B838D819E8101979E8307
:101650008D838D819E81009769F714C06F81788595
:1016600089859A850E944100DC01CB019E838D8390
:101670008D819E819A83898389819A810197F1F76F
:101680009A838983CD5BDF4F0FB6F894DEBF0FBE20
:10169000CDBFCF91DF910895DF93CF93CDB7DEB764
:1016A0002E970FB6F894DEBF0FBECDBF80E090E05E
:1016B000A4E2B2E48B879C87AD87BE876B857C856F
:1016C0008D859E8520E030E04AE753E40E941702B2
:1016D000DC01CB018F839887A987BA876F817885D2
:1016E00089859A8520E030E040E85FE30E941D0490
:1016F00088232CF481E090E09E838D833FC06F812E
:10170000788589859A8520E03FEF4FE757E40E946E
:10171000BD0318164CF56B857C858D859E8520E074
:1017200030E040E251E40E941702DC01CB01BC0131
:10173000CD010E944100DC01CB019E838D830FC04F
:1017400089E190E09C838B838B819C810197F1F7E9
:101750009C838B838D819E8101979E838D838D8158
:101760009E81009769F714C06F81788589859A8575
:101770000E944100DC01CB019E838D838D819E817F
:101780009A83898389819A810197F1F79A83898362
:1017900083E30E94470682E30E94470688E20E9494
:1017A00047068CE00E94470681E00E9447062E967D
:1017B0000FB6F894DEBF0FBECDBFCF91DF91089575
:1017C000DF93CF9300D0CDB7DEB79A8389830AC069
:1017D000E981FA8180810E94920889819A8101962B
:1017E0009A838983E981FA818081882389F70F9020
:1017F0000F90CF91DF910895DF93CF9300D00F9298
:10180000CDB7DEB78A836B838A81882319F48B81F5
:10181000898306C08A81813019F48B81805C898339
:10182000898180580E9447060F900F900F90CF91AA
:10183000DF910895DF93CF93CDB7DEB727970FB62B
:10184000F894DEBF0FBECDBF9C838B836D834E8328
:101850002F838D81882F90E0880F991F880F991F03
:10186000880F991F8A838A81805C0E9447061982AB
:101870000EC08981282F30E08B819C81FC01E20F12
:10188000F31F80810E94920889818F5F89838981FB
:10189000883078F38E816F810E94FC0B8D810E94CD
:1018A000920827960FB6F894DEBF0FBECDBFCF913A
:1018B000DF9108950F931F93DF93CF93CDB7DEB7DA
:1018C00061970FB6F894DEBF0FBECDBF6E877F87DE
:1018D000888B998B8AE089838981282F30E0CE011B
:1018E0000296FC01E20FF31F1082898181508983E7
:1018F0008981082F10E08E859F85A889B9892AE003
:1019000030E040E050E0BC01CD010E94A812DC01B3
:10191000CB01282F205DCE010296FC01E00FF11FC4
:1019200020838981815089838E859F85A889B98983
:101930002AE030E040E050E0BC01CD010E94A81256
:10194000DA01C9018E879F87A88BB98B8E859F8509
:10195000A889B9890097A105B10519F08981882363
:1019600039F68981882F90E09C012F5F3F4FCE018F
:101970000296820F931F0E94E00B61960FB6F894B7
:10198000DEBF0FBECDBFCF91DF911F910F910895A4
:10199000DF93CF9300D000D0CDB7DEB79B838A838F
:1019A0006C83198213C08981282F30E08A819B8142
:1019B000FC01E20FF31F8081882F90E0698140E0F5
:1019C00029810E941A0C89818F5F898399818C817A
:1019D000981748F30F900F900F900F90CF91DF91D1
:1019E0000895DF93CF93CDB7DEB781E00E9447061D
:1019F000CF91DF910895DF93CF930F92CDB7DEB7EC
:101A000089838981882321F484E10E94470606C0E6
:101A10008981813019F480E10E9447060F90CF91AF
:101A2000DF910895DF93CF930F92CDB7DEB789830F
:101A30008981882321F48CE10E94470606C08981B0
:101A4000813019F488E10E9447060F90CF91DF9111
:101A50000895DF93CF93CDB7DEB728970FB6F894EC
:101A6000DEBF0FBECDBF8A836B834C8319828B810F
:101A7000883008F0F4C08C81882309F077C08A810F
:101A8000282F30E038872F838F819885813091050A
:101A900059F12F813885223031052CF48F819885BA
:101AA000009769F060C02F8138852230310589F1B7
:101AB0008F8198858330910509F440C054C0ABE311
:101AC000B0E0EBE3F0E08081482F8B81282F30E0FD
:101AD00081E090E0022E02C0880F991F0A94E2F77D
:101AE000809584238C93BDC0A8E3B0E0E8E3F0E0E8
:101AF0008081482F8B81282F30E081E090E0022EFA
:101B000002C0880F991F0A94E2F7809584238C9372
:101B1000A8C0A5E3B0E0E5E3F0E08081482F8B8129
:101B2000282F30E081E090E0022E02C0880F991F3C
:101B30000A94E2F7809584238C9393C0A2E3B0E0EB
:101B4000E2E3F0E08081482F8B81282F30E081E0B4
:101B500090E0022E02C0880F991F0A94E2F7809548
:101B600084238C937EC081E089837BC08C8181300B
:101B700009F072C08A81282F30E03E832D838D8149
:101B80009E818130910549F12D813E8122303105C0
:101B90002CF48D819E81009761F05BC02D813E8188
:101BA0002230310571F18D819E8183309105E9F1FB
:101BB00050C0ABE3B0E0EBE3F0E08081482F8B81D5
:101BC000282F30E081E090E0022E02C0880F991F9C
:101BD0000A94E2F7842B8C9344C0A8E3B0E0E8E3D6
:101BE000F0E08081482F8B81282F30E081E090E069
:101BF000022E02C0880F991F0A94E2F7842B8C935F
:101C000030C0A5E3B0E0E5E3F0E08081482F8B81B0
:101C1000282F30E081E090E0022E02C0880F991F4B
:101C20000A94E2F7842B8C931CC0A2E3B0E0E2E3B9
:101C3000F0E08081482F8B81282F30E081E090E018
:101C4000022E02C0880F991F0A94E2F7842B8C930E
:101C500008C081E0898305C081E0898302C081E0FA
:101C60008983898128960FB6F894DEBF0FBECDBF59
:101C7000CF91DF910895DF93CF9300D000D00F92E2
:101C8000CDB7DEB78A836B8319828A81282F30E033
:101C90003D832C838C819D8181309105D1F02C81F5
:101CA0003D81223031052CF48C819D81009761F0BB
:101CB0001FC02C813D812230310581F08C819D81B6
:101CC0008330910581F014C0EBE3F0E08B818083D9
:101CD00011C0E8E3F0E08B8180830CC0E5E3F0E025
:101CE0008B81808307C0E2E3F0E08B81808302C0B8
:101CF00081E0898389810F900F900F900F900F9052
:101D0000CF91DF910895DF93CF93CDB7DEB72797BB
:101D10000FB6F894DEBF0FBECDBF8A836B835D83A1
:101D20004C8319828C819D81009709F478C08B8146
:101D3000883008F074C08A81282F30E03F832E83DA
:101D40004E815F814130510559F18E819F818230F2
:101D5000910534F42E813F812115310569F05CC075
:101D60004E815F814230510579F18E819F818330B0
:101D7000910509F43DC050C0E9E3F0E08081282FCF
:101D800030E08B81882F90E0A90102C055954795DE
:101D90008A95E2F7CA018170EC81FD81808341C0A0
:101DA000E6E3F0E08081282F30E08B81882F90E0FF
:101DB000A90102C0559547958A95E2F7CA0181703D
:101DC000EC81FD8180832DC0E3E3F0E08081282F4A
:101DD00030E08B81882F90E0A90102C0559547958E
:101DE0008A95E2F7CA018170EC81FD81808319C078
:101DF000E0E3F0E08081282F30E08B81882F90E0B5
:101E0000A90102C0559547958A95E2F7CA018170EC
:101E1000EC81FD81808305C081E0898302C081E07F
:101E20008983898127960FB6F894DEBF0FBECDBF98
:101E3000CF91DF910895DF93CF9300D0CDB7DEB778
:101E40008A838A818F7089838A8182958F70882F97
:101E500090E09C01220F331FC901880F991F880F42
:101E6000991F820F931F982F8981890F89838981F8
:101E70000F900F90CF91DF910895DF93CF9300D013
:101E8000CDB7DEB79A8389830E94481088E60E9406
:101E9000D51080E00E94FF10E981FA8180810E94C4
:101EA000FF10E981FA8181810E94FF10E981FA81A6
:101EB00082810E94FF10E981FA8187810E94FF10D0
:101EC000E981FA8184810E94FF10E981FA8185818C
:101ED0000E94FF10E981FA8186810E94FF100E9412
:101EE00062110F900F90CF91DF910895DF93CF9300
:101EF00000D0CDB7DEB79A8389830E94481088E668
:101F00000E94D51080E00E94FF100E94791088E6A0
:101F10000E94AA1089819A810E94251189819A8143
:101F200001960E94251189819A8102960E942511AD
:101F300089819A8107960E94251189819A81049648
:101F40000E94251189819A8105960E942511898117
:101F50009A8106960E946D110E946211E981FA81B0
:101F600080810E941B0FE981FA818083E981FA81D7
:101F700081810E941B0FE981FA818183E981FA81C5
:101F800082810E941B0FE981FA818283E981FA81B3
:101F900087810E941B0FE981FA818783E981FA8199
:101FA00084810E941B0FE981FA818483E981FA818F
:101FB00085810E941B0FE981FA818583E981FA817D
:101FC00086810E941B0FE981FA818683E981FA816B
:101FD00082819CE0692F0E949C12E981FA818383AF
:101FE0000F900F90CF91DF910895DF93CF93CDB7EE
:101FF000DEB7EAE3F0E08FEF8083E7E3F0E087E02D
:102000008083E4E3F0E01082E1E3F0E01082EBE3B0
:10201000F0E01082E8E3F0E01082E5E3F0E0108207
:10202000E2E3F0E01082CF91DF910895DF93CF9348
:102030000F92CDB7DEB78983E0E2F0E080E28083E3
:10204000E1E2F0E01082E2E2F0E082E08083A6E5E7
:10205000B0E0E6E5F0E0808184608C930F90CF9152
:10206000DF910895DF93CF930F92CDB7DEB78983C9
:10207000E2E2F0E08981880F8083A6E5B0E0E6E542
:10208000F0E0808184608C930F90CF91DF91089570
:10209000DF93CF930F92CDB7DEB71982A6E5B0E0FC
:1020A000E6E5F0E0808180628C93A6E5B0E0E6E5AD
:1020B000F0E0808180688C93A6E5B0E0E6E5F0E092
:1020C000808184608C93E6E5F0E080818823DCF7F2
:1020D000E1E2F0E08081882F90E0887F9070883086
:1020E000910511F081E0898389810F90CF91DF9173
:1020F0000895DF93CF930F92CDB7DEB71982A6E58F
:10210000B0E0E6E5F0E0808180628C93A6E5B0E087
:10211000E6E5F0E0808184608C93A6E5B0E0E6E53A
:10212000F0E0808180688C93E6E5F0E08081882390
:10213000DCF7E1E2F0E08081882F90E0887F90700A
:102140008031910511F082E0898389810F90CF91D0
:10215000DF910895DF93CF9300D0CDB7DEB78A83A8
:102160001982E3E2F0E08A81882F90E0880F991FBE
:1021700081608083E6E5F0E084E88083E6E5F0E0D6
:1021800080818823DCF7E1E2F0E08081882F90E015
:10219000887F90708034910511F083E08983898174
:1021A0000F900F90CF91DF910895DF93CF9300D0E0
:1021B000CDB7DEB78A831982E3E2F0E08A81882F07
:1021C00090E0880F991F8083E6E5F0E084E8808343
:1021D000E6E5F0E080818823DCF7E1E2F0E0808151
:1021E000882F90E0887F90708831910511F084E00D
:1021F000898389810F900F90CF91DF910895DF93AC
:10220000CF9300D0CDB7DEB78A831982E3E2F0E046
:102210008A818083E6E5F0E084E88083E6E5F0E00B
:1022200080818823DCF7E1E2F0E08081882F90E074
:10223000887F90708832910511F085E089838981CB
:102240000F900F90CF91DF910895DF93CF9300D03F
:102250000F92CDB7DEB79B838A831982A6E5B0E0E3
:10226000E6E5F0E0808180648C93A6E5B0E0E6E5E9
:10227000F0E0808184608C93A6E5B0E0E6E5F0E0D4
:10228000808180688C93E6E5F0E080818823DCF72C
:10229000E1E2F0E08081882F90E0887F90708035C7
:1022A000910519F086E0898306C0E3E2F0E08081C1
:1022B000EA81FB81808389810F900F900F90CF91ED
:1022C000DF910895DF93CF93CDB7DEB7E6E5F0E079
:1022D00084E98083CF91DF910895DF93CF9300D07D
:1022E0000F92CDB7DEB79B838A831982A6E5B0E053
:1022F000E6E5F0E080818F7B8C93A6E5B0E0E6E533
:10230000F0E0808184608C93A6E5B0E0E6E5F0E043
:10231000808180688C93E6E5F0E080818823DCF79B
:10232000E1E2F0E08081882F90E0887F907088352E
:10233000910519F086E0898306C0E3E2F0E0808130
:10234000EA81FB81808389810F900F900F90CF915C
:10235000DF910895DF93CF93CDB7DEB766970FB6C1
:10236000F894DEBF0FBECDBF0E94F50F0E944C0B4C
:1023700080E00E941610CE010F960E94760F0E94F8
:10238000F10C89899CE0692F0E949C12892F882F6B
:1023900090E0A0E0B0E0BC01CD010E945A0C8AE3BD
:1023A0000E9492088889882F90E0A0E0B0E0BC01EC
:1023B000CD010E945A0C8AE30E9492088F85882FD3
:1023C00090E0A0E0B0E0BC01CD010E945A0C8A89E7
:1023D000882329F08CE790E00E94E00B04C080E89D
:1023E00090E00E94E00B81E060E00E94FC0B8B8992
:1023F000882F90E0A0E0B0E0BC01CD010E945A0C13
:102400008FE20E9492088C89882F90E0A0E0B0E0D3
:10241000BC01CD010E945A0C84E890E00E94E00BC0
:102420008D89882F90E0A0E0B0E0BC01CD010E9432
:102430005A0C80E20E9492088E89882F90E00197C2
:10244000880F991FFC01E057FF4F808191810E9406
:10245000E00B80E090E0AAE7B4E48B879C87AD872F
:10246000BE876B857C858D859E8520E030E04AE7C0
:1024700053E40E941702DC01CB018F839887A98760
:10248000BA876F81788589859A8520E030E040E8B9
:102490005FE30E941D0488232CF481E090E09E837A
:1024A0008D833FC06F81788589859A8520E03FEFD5
:1024B0004FE757E40E94BD0318164CF56B857C85E9
:1024C0008D859E8520E030E040E251E40E941702B5
:1024D000DC01CB01BC01CD010E944100DC01CB013C
:1024E0009E838D830FC089E190E09C838B838B81D9
:1024F0009C810197F1F79C838B838D819E8101974D
:102500009E838D838D819E81009769F734CF6F8183
:10251000788589859A850E944100DC01CB019E83E4
:102520008D838D819E819A83898389819A81019788
:10253000F1F79A8389831FCF991B79E004C0991F13
:10254000961708F0961B881F7A95C9F7809508950D
:10255000A1E21A2EAA1BBB1BFD010DC0AA1FBB1FA7
:10256000EE1FFF1FA217B307E407F50720F0A21B19
:10257000B30BE40BF50B661F771F881F991F1A9486
:1025800069F760957095809590959B01AC01BD01B0
:10259000CF0108952F923F924F925F926F927F9258
:1025A0008F929F92AF92BF92CF92DF92EF92FF9263
:1025B0000F931F93CF93DF93CDB7DEB7CA1BDB0B0F
:1025C0000FB6F894DEBF0FBECDBF09942A883988B4
:1025D00048885F846E847D848C849B84AA84B984BB
:1025E000C884DF80EE80FD800C811B81AA81B981C7
:1025F000CE0FD11D0FB6F894DEBF0FBECDBFED01DB
:062600000895F894FFCFDD
:102606005361740053756E004D6F6E00547565000E
:1026160057656E00546875004672690020504D007B
:1026260020414D002F323000000000000000000065
:0E2636006000640068006C00700074007800A2
:00000001FF
